{
  "_format": "hh-sol-artifact-1",
  "contractName": "Minerva",
  "sourceName": "contracts/Minerva.sol",
  "abi": [
    {
      "anonymous": false,
      "inputs": [
        {
          "indexed": false,
          "internalType": "uint256",
          "name": "id",
          "type": "uint256"
        },
        {
          "indexed": false,
          "internalType": "string",
          "name": "hash",
          "type": "string"
        },
        {
          "indexed": false,
          "internalType": "string",
          "name": "title",
          "type": "string"
        },
        {
          "indexed": false,
          "internalType": "address",
          "name": "author",
          "type": "address"
        }
      ],
      "name": "VideoUploaded",
      "type": "event"
    },
    {
      "inputs": [
        {
          "internalType": "address",
          "name": "_author",
          "type": "address"
        },
        {
          "internalType": "uint256",
          "name": "_tutorialId",
          "type": "uint256"
        }
      ],
      "name": "buyTutorial",
      "outputs": [],
      "stateMutability": "nonpayable",
      "type": "function"
    },
    {
      "inputs": [],
      "name": "getAllTutorials",
      "outputs": [
        {
          "components": [
            {
              "internalType": "uint256",
              "name": "id",
              "type": "uint256"
            },
            {
              "internalType": "string",
              "name": "hash",
              "type": "string"
            },
            {
              "internalType": "string",
              "name": "title",
              "type": "string"
            },
            {
              "internalType": "address",
              "name": "author",
              "type": "address"
            }
          ],
          "internalType": "struct Minerva.Video[]",
          "name": "",
          "type": "tuple[]"
        }
      ],
      "stateMutability": "view",
      "type": "function"
    },
    {
      "inputs": [],
      "name": "getTutorialCount",
      "outputs": [
        {
          "internalType": "uint256",
          "name": "",
          "type": "uint256"
        }
      ],
      "stateMutability": "view",
      "type": "function"
    },
    {
      "inputs": [
        {
          "internalType": "address",
          "name": "_user",
          "type": "address"
        }
      ],
      "name": "getTutorialsByUser",
      "outputs": [
        {
          "components": [
            {
              "internalType": "uint256",
              "name": "id",
              "type": "uint256"
            },
            {
              "internalType": "string",
              "name": "hash",
              "type": "string"
            },
            {
              "internalType": "string",
              "name": "title",
              "type": "string"
            },
            {
              "internalType": "address",
              "name": "author",
              "type": "address"
            }
          ],
          "internalType": "struct Minerva.Video[]",
          "name": "",
          "type": "tuple[]"
        }
      ],
      "stateMutability": "view",
      "type": "function"
    },
    {
      "inputs": [],
      "name": "name",
      "outputs": [
        {
          "internalType": "string",
          "name": "",
          "type": "string"
        }
      ],
      "stateMutability": "view",
      "type": "function"
    },
    {
      "inputs": [],
      "name": "tutorialCount",
      "outputs": [
        {
          "internalType": "uint256",
          "name": "",
          "type": "uint256"
        }
      ],
      "stateMutability": "view",
      "type": "function"
    },
    {
      "inputs": [
        {
          "internalType": "uint256",
          "name": "",
          "type": "uint256"
        }
      ],
      "name": "tutorials",
      "outputs": [
        {
          "internalType": "uint256",
          "name": "id",
          "type": "uint256"
        },
        {
          "internalType": "string",
          "name": "hash",
          "type": "string"
        },
        {
          "internalType": "string",
          "name": "title",
          "type": "string"
        },
        {
          "internalType": "address",
          "name": "author",
          "type": "address"
        }
      ],
      "stateMutability": "view",
      "type": "function"
    },
    {
      "inputs": [
        {
          "internalType": "string",
          "name": "_videoHash",
          "type": "string"
        },
        {
          "internalType": "string",
          "name": "_title",
          "type": "string"
        }
      ],
      "name": "uploadTutorial",
      "outputs": [],
      "stateMutability": "nonpayable",
      "type": "function"
    },
    {
      "inputs": [
        {
          "internalType": "address",
          "name": "",
          "type": "address"
        }
      ],
      "name": "users",
      "outputs": [
        {
          "internalType": "address",
          "name": "userAddress",
          "type": "address"
        },
        {
          "internalType": "uint256",
          "name": "broughtTutorialsCount",
          "type": "uint256"
        },
        {
          "internalType": "uint256",
          "name": "userTutorialsCount",
          "type": "uint256"
        }
      ],
      "stateMutability": "view",
      "type": "function"
    }
  ],
  "bytecode": "0x6080604052600080556040518060400160405280600781526020017f4d696e6572766100000000000000000000000000000000000000000000000000815250600190816200004e9190620002dd565b503480156200005c57600080fd5b50620003c4565b600081519050919050565b7f4e487b7100000000000000000000000000000000000000000000000000000000600052604160045260246000fd5b7f4e487b7100000000000000000000000000000000000000000000000000000000600052602260045260246000fd5b60006002820490506001821680620000e557607f821691505b602082108103620000fb57620000fa6200009d565b5b50919050565b60008190508160005260206000209050919050565b60006020601f8301049050919050565b600082821b905092915050565b600060088302620001657fffffffffffffffffffffffffffffffffffffffffffffffffffffffffffffffff8262000126565b62000171868362000126565b95508019841693508086168417925050509392505050565b6000819050919050565b6000819050919050565b6000620001be620001b8620001b28462000189565b62000193565b62000189565b9050919050565b6000819050919050565b620001da836200019d565b620001f2620001e982620001c5565b84845462000133565b825550505050565b600090565b62000209620001fa565b62000216818484620001cf565b505050565b5b818110156200023e5762000232600082620001ff565b6001810190506200021c565b5050565b601f8211156200028d57620002578162000101565b620002628462000116565b8101602085101562000272578190505b6200028a620002818562000116565b8301826200021b565b50505b505050565b600082821c905092915050565b6000620002b26000198460080262000292565b1980831691505092915050565b6000620002cd83836200029f565b9150826002028217905092915050565b620002e88262000063565b67ffffffffffffffff8111156200030457620003036200006e565b5b620003108254620000cc565b6200031d82828562000242565b600060209050601f83116001811462000355576000841562000340578287015190505b6200034c8582620002bf565b865550620003bc565b601f198416620003658662000101565b60005b828110156200038f5784890151825560018201915060208501945060208101905062000368565b86831015620003af5784890151620003ab601f8916826200029f565b8355505b6001600288020188555050505b505050505050565b611d0e80620003d46000396000f3fe608060405234801561001057600080fd5b50600436106100935760003560e01c80636336ad5e116100665780636336ad5e14610123578063a87430ba1461013f578063abc1161b14610171578063c8d765da146101a1578063da50e1cc146101bf57610093565b806306fdde03146100985780632389b1cb146100b6578063307a0175146100d45780634409a0e8146100f0575b600080fd5b6100a06101dd565b6040516100ad91906110fd565b60405180910390f35b6100be61026b565b6040516100cb9190611138565b60405180910390f35b6100ee60048036038101906100e991906111e7565b610274565b005b61010a60048036038101906101059190611227565b610686565b60405161011a9493929190611263565b60405180910390f35b61013d6004803603810190610138919061131b565b6107e6565b005b6101596004803603810190610154919061139c565b610ab8565b604051610168939291906113c9565b60405180910390f35b61018b6004803603810190610186919061139c565b610b02565b6040516101989190611594565b60405180910390f35b6101a9610dd7565b6040516101b69190611138565b60405180910390f35b6101c7610ddd565b6040516101d49190611594565b60405180910390f35b600180546101ea906115e5565b80601f0160208091040260200160405190810160405280929190818152602001828054610216906115e5565b80156102635780601f1061023857610100808354040283529160200191610263565b820191906000526020600020905b81548152906001019060200180831161024657829003601f168201915b505050505081565b60008054905090565b600073ffffffffffffffffffffffffffffffffffffffff168273ffffffffffffffffffffffffffffffffffffffff16036102ad57600080fd5b6000811180156102bf57506000548111155b6102c857600080fd5b600073ffffffffffffffffffffffffffffffffffffffff16600360003373ffffffffffffffffffffffffffffffffffffffff1673ffffffffffffffffffffffffffffffffffffffff16815260200190815260200160002060000160009054906101000a900473ffffffffffffffffffffffffffffffffffffffff1673ffffffffffffffffffffffffffffffffffffffff160361036357600080fd5b600073ffffffffffffffffffffffffffffffffffffffff16600360008473ffffffffffffffffffffffffffffffffffffffff1673ffffffffffffffffffffffffffffffffffffffff16815260200190815260200160002060000160009054906101000a900473ffffffffffffffffffffffffffffffffffffffff1673ffffffffffffffffffffffffffffffffffffffff16036103fe57600080fd5b8173ffffffffffffffffffffffffffffffffffffffff16600360003373ffffffffffffffffffffffffffffffffffffffff1673ffffffffffffffffffffffffffffffffffffffff16815260200190815260200160002060000160009054906101000a900473ffffffffffffffffffffffffffffffffffffffff1673ffffffffffffffffffffffffffffffffffffffff160361049857600080fd5b600360003373ffffffffffffffffffffffffffffffffffffffff1673ffffffffffffffffffffffffffffffffffffffff16815260200190815260200160002060010160008281526020019081526020016000206040516104f891906116b9565b6040518091039020600360008473ffffffffffffffffffffffffffffffffffffffff1673ffffffffffffffffffffffffffffffffffffffff168152602001908152602001600020600201600083815260200190815260200160002060405161056091906116b9565b60405180910390200361057257600080fd5b600360003373ffffffffffffffffffffffffffffffffffffffff1673ffffffffffffffffffffffffffffffffffffffff16815260200190815260200160002060030160008154809291906105c5906116ff565b919050555060026000828152602001908152602001600020600101600360003373ffffffffffffffffffffffffffffffffffffffff1673ffffffffffffffffffffffffffffffffffffffff1681526020019081526020016000206001016000600360003373ffffffffffffffffffffffffffffffffffffffff1673ffffffffffffffffffffffffffffffffffffffff1681526020019081526020016000206003015481526020019081526020016000209081610681919061194d565b505050565b60026020528060005260406000206000915090508060000154908060010180546106af906115e5565b80601f01602080910402602001604051908101604052809291908181526020018280546106db906115e5565b80156107285780601f106106fd57610100808354040283529160200191610728565b820191906000526020600020905b81548152906001019060200180831161070b57829003601f168201915b50505050509080600201805461073d906115e5565b80601f0160208091040260200160405190810160405280929190818152602001828054610769906115e5565b80156107b65780601f1061078b576101008083540402835291602001916107b6565b820191906000526020600020905b81548152906001019060200180831161079957829003601f168201915b5050505050908060030160009054906101000a900473ffffffffffffffffffffffffffffffffffffffff16905084565b600084849050116107f657600080fd5b6000828290501161080657600080fd5b600080815480929190610818906116ff565b91905055506040518060800160405280600054815260200185858080601f016020809104026020016040519081016040528093929190818152602001838380828437600081840152601f19601f82011690508083019250505050505050815260200183838080601f016020809104026020016040519081016040528093929190818152602001838380828437600081840152601f19601f8201169050808301925050505050505081526020013373ffffffffffffffffffffffffffffffffffffffff1681525060026000805481526020019081526020016000206000820151816000015560208201518160010190816109119190611a35565b5060408201518160020190816109279190611a35565b5060608201518160030160006101000a81548173ffffffffffffffffffffffffffffffffffffffff021916908373ffffffffffffffffffffffffffffffffffffffff160217905550905050600360003373ffffffffffffffffffffffffffffffffffffffff1673ffffffffffffffffffffffffffffffffffffffff16815260200190815260200160002060040160008154809291906109c5906116ff565b91905055508383600360003373ffffffffffffffffffffffffffffffffffffffff1673ffffffffffffffffffffffffffffffffffffffff1681526020019081526020016000206002016000600360003373ffffffffffffffffffffffffffffffffffffffff1673ffffffffffffffffffffffffffffffffffffffff1681526020019081526020016000206004015481526020019081526020016000209182610a6e929190611b12565b507f2c44b862f4b4e08a26a765f9499900759a9ec95360a6f174d53163bd5d367f676000548585858533604051610aaa96959493929190611c1e565b60405180910390a150505050565b60036020528060005260406000206000915090508060000160009054906101000a900473ffffffffffffffffffffffffffffffffffffffff16908060030154908060040154905083565b60606000600360008473ffffffffffffffffffffffffffffffffffffffff1673ffffffffffffffffffffffffffffffffffffffff1681526020019081526020016000206004015467ffffffffffffffff811115610b6257610b6161175d565b5b604051908082528060200260200182016040528015610b9b57816020015b610b8861102f565b815260200190600190039081610b805790505b5090506000600190505b600360008573ffffffffffffffffffffffffffffffffffffffff1673ffffffffffffffffffffffffffffffffffffffff168152602001908152602001600020600401548111610dcd576002600082815260200190815260200160002060405180608001604052908160008201548152602001600182018054610c26906115e5565b80601f0160208091040260200160405190810160405280929190818152602001828054610c52906115e5565b8015610c9f5780601f10610c7457610100808354040283529160200191610c9f565b820191906000526020600020905b815481529060010190602001808311610c8257829003601f168201915b50505050508152602001600282018054610cb8906115e5565b80601f0160208091040260200160405190810160405280929190818152602001828054610ce4906115e5565b8015610d315780601f10610d0657610100808354040283529160200191610d31565b820191906000526020600020905b815481529060010190602001808311610d1457829003601f168201915b505050505081526020016003820160009054906101000a900473ffffffffffffffffffffffffffffffffffffffff1673ffffffffffffffffffffffffffffffffffffffff1673ffffffffffffffffffffffffffffffffffffffff168152505082600183610d9e9190611c75565b81518110610daf57610dae611ca9565b5b60200260200101819052508080610dc5906116ff565b915050610ba5565b5080915050919050565b60005481565b60606000805467ffffffffffffffff811115610dfc57610dfb61175d565b5b604051908082528060200260200182016040528015610e3557816020015b610e2261102f565b815260200190600190039081610e1a5790505b5090506000600190505b6000548111611027576002600082815260200190815260200160002060405180608001604052908160008201548152602001600182018054610e80906115e5565b80601f0160208091040260200160405190810160405280929190818152602001828054610eac906115e5565b8015610ef95780601f10610ece57610100808354040283529160200191610ef9565b820191906000526020600020905b815481529060010190602001808311610edc57829003601f168201915b50505050508152602001600282018054610f12906115e5565b80601f0160208091040260200160405190810160405280929190818152602001828054610f3e906115e5565b8015610f8b5780601f10610f6057610100808354040283529160200191610f8b565b820191906000526020600020905b815481529060010190602001808311610f6e57829003601f168201915b505050505081526020016003820160009054906101000a900473ffffffffffffffffffffffffffffffffffffffff1673ffffffffffffffffffffffffffffffffffffffff1673ffffffffffffffffffffffffffffffffffffffff168152505082600183610ff89190611c75565b8151811061100957611008611ca9565b5b6020026020010181905250808061101f906116ff565b915050610e3f565b508091505090565b6040518060800160405280600081526020016060815260200160608152602001600073ffffffffffffffffffffffffffffffffffffffff1681525090565b600081519050919050565b600082825260208201905092915050565b60005b838110156110a757808201518184015260208101905061108c565b60008484015250505050565b6000601f19601f8301169050919050565b60006110cf8261106d565b6110d98185611078565b93506110e9818560208601611089565b6110f2816110b3565b840191505092915050565b6000602082019050818103600083015261111781846110c4565b905092915050565b6000819050919050565b6111328161111f565b82525050565b600060208201905061114d6000830184611129565b92915050565b600080fd5b600080fd5b600073ffffffffffffffffffffffffffffffffffffffff82169050919050565b60006111888261115d565b9050919050565b6111988161117d565b81146111a357600080fd5b50565b6000813590506111b58161118f565b92915050565b6111c48161111f565b81146111cf57600080fd5b50565b6000813590506111e1816111bb565b92915050565b600080604083850312156111fe576111fd611153565b5b600061120c858286016111a6565b925050602061121d858286016111d2565b9150509250929050565b60006020828403121561123d5761123c611153565b5b600061124b848285016111d2565b91505092915050565b61125d8161117d565b82525050565b60006080820190506112786000830187611129565b818103602083015261128a81866110c4565b9050818103604083015261129e81856110c4565b90506112ad6060830184611254565b95945050505050565b600080fd5b600080fd5b600080fd5b60008083601f8401126112db576112da6112b6565b5b8235905067ffffffffffffffff8111156112f8576112f76112bb565b5b602083019150836001820283011115611314576113136112c0565b5b9250929050565b6000806000806040858703121561133557611334611153565b5b600085013567ffffffffffffffff81111561135357611352611158565b5b61135f878288016112c5565b9450945050602085013567ffffffffffffffff81111561138257611381611158565b5b61138e878288016112c5565b925092505092959194509250565b6000602082840312156113b2576113b1611153565b5b60006113c0848285016111a6565b91505092915050565b60006060820190506113de6000830186611254565b6113eb6020830185611129565b6113f86040830184611129565b949350505050565b600081519050919050565b600082825260208201905092915050565b6000819050602082019050919050565b6114358161111f565b82525050565b600082825260208201905092915050565b60006114578261106d565b611461818561143b565b9350611471818560208601611089565b61147a816110b3565b840191505092915050565b61148e8161117d565b82525050565b60006080830160008301516114ac600086018261142c565b50602083015184820360208601526114c4828261144c565b915050604083015184820360408601526114de828261144c565b91505060608301516114f36060860182611485565b508091505092915050565b600061150a8383611494565b905092915050565b6000602082019050919050565b600061152a82611400565b611534818561140b565b9350836020820285016115468561141c565b8060005b85811015611582578484038952815161156385826114fe565b945061156e83611512565b925060208a0199505060018101905061154a565b50829750879550505050505092915050565b600060208201905081810360008301526115ae818461151f565b905092915050565b7f4e487b7100000000000000000000000000000000000000000000000000000000600052602260045260246000fd5b600060028204905060018216806115fd57607f821691505b6020821081036116105761160f6115b6565b5b50919050565b600081905092915050565b60008190508160005260206000209050919050565b60008154611643816115e5565b61164d8186611616565b94506001821660008114611668576001811461167d576116b0565b60ff19831686528115158202860193506116b0565b61168685611621565b60005b838110156116a857815481890152600182019150602081019050611689565b838801955050505b50505092915050565b60006116c58284611636565b915081905092915050565b7f4e487b7100000000000000000000000000000000000000000000000000000000600052601160045260246000fd5b600061170a8261111f565b91507fffffffffffffffffffffffffffffffffffffffffffffffffffffffffffffffff820361173c5761173b6116d0565b5b600182019050919050565b600081549050611756816115e5565b9050919050565b7f4e487b7100000000000000000000000000000000000000000000000000000000600052604160045260246000fd5b60008190508160005260206000209050919050565b60008190508160005260206000209050919050565b60006020601f8301049050919050565b600082821b905092915050565b6000600883026118037fffffffffffffffffffffffffffffffffffffffffffffffffffffffffffffffff826117c6565b61180d86836117c6565b95508019841693508086168417925050509392505050565b6000819050919050565b600061184a6118456118408461111f565b611825565b61111f565b9050919050565b6000819050919050565b6118648361182f565b61187861187082611851565b8484546117d3565b825550505050565b600090565b61188d611880565b61189881848461185b565b505050565b5b818110156118bc576118b1600082611885565b60018101905061189e565b5050565b601f821115611901576118d28161178c565b6118db846117b6565b810160208510156118ea578190505b6118fe6118f6856117b6565b83018261189d565b50505b505050565b600082821c905092915050565b600061192460001984600802611906565b1980831691505092915050565b600061193d8383611913565b9150826002028217905092915050565b81810361195b575050611a33565b61196482611747565b67ffffffffffffffff81111561197d5761197c61175d565b5b61198782546115e5565b6119928282856118c0565b6000601f8311600181146119c157600084156119af578287015490505b6119b98582611931565b865550611a2c565b601f1984166119cf876117a1565b96506119da8661178c565b60005b82811015611a02578489015482556001820191506001850194506020810190506119dd565b86831015611a1f5784890154611a1b601f891682611913565b8355505b6001600288020188555050505b5050505050505b565b611a3e8261106d565b67ffffffffffffffff811115611a5757611a5661175d565b5b611a6182546115e5565b611a6c8282856118c0565b600060209050601f831160018114611a9f5760008415611a8d578287015190505b611a978582611931565b865550611aff565b601f198416611aad8661178c565b60005b82811015611ad557848901518255600182019150602085019450602081019050611ab0565b86831015611af25784890151611aee601f891682611913565b8355505b6001600288020188555050505b505050505050565b600082905092915050565b611b1c8383611b07565b67ffffffffffffffff811115611b3557611b3461175d565b5b611b3f82546115e5565b611b4a8282856118c0565b6000601f831160018114611b795760008415611b67578287013590505b611b718582611931565b865550611bd9565b601f198416611b878661178c565b60005b82811015611baf57848901358255600182019150602085019450602081019050611b8a565b86831015611bcc5784890135611bc8601f891682611913565b8355505b6001600288020188555050505b50505050505050565b82818337600083830152505050565b6000611bfd8385611078565b9350611c0a838584611be2565b611c13836110b3565b840190509392505050565b6000608082019050611c336000830189611129565b8181036020830152611c46818789611bf1565b90508181036040830152611c5b818587611bf1565b9050611c6a6060830184611254565b979650505050505050565b6000611c808261111f565b9150611c8b8361111f565b9250828203905081811115611ca357611ca26116d0565b5b92915050565b7f4e487b7100000000000000000000000000000000000000000000000000000000600052603260045260246000fdfea264697066735822122044452f85a06d9bddff9603dfb464ec3caaa4e10ab12e41a831f1da64de62525864736f6c63430008180033",
  "linkReferences": {},
  "deployedLinkReferences": {}
}